{
  "_format": "hh-sol-artifact-1",
  "contractName": "contratoNFT",
  "sourceName": "contracts/contratoNFT.sol",
  "abi": [
    {
      "inputs": [],
      "stateMutability": "nonpayable",
      "type": "constructor"
    },
    {
      "anonymous": false,
      "inputs": [
        {
          "indexed": true,
          "internalType": "address",
          "name": "owner",
          "type": "address"
        },
        {
          "indexed": true,
          "internalType": "address",
          "name": "approved",
          "type": "address"
        },
        {
          "indexed": true,
          "internalType": "uint256",
          "name": "tokenId",
          "type": "uint256"
        }
      ],
      "name": "Approval",
      "type": "event"
    },
    {
      "anonymous": false,
      "inputs": [
        {
          "indexed": true,
          "internalType": "address",
          "name": "owner",
          "type": "address"
        },
        {
          "indexed": true,
          "internalType": "address",
          "name": "operator",
          "type": "address"
        },
        {
          "indexed": false,
          "internalType": "bool",
          "name": "approved",
          "type": "bool"
        }
      ],
      "name": "ApprovalForAll",
      "type": "event"
    },
    {
      "anonymous": false,
      "inputs": [
        {
          "indexed": false,
          "internalType": "address",
          "name": "sender",
          "type": "address"
        },
        {
          "indexed": false,
          "internalType": "uint256",
          "name": "tokenId",
          "type": "uint256"
        }
      ],
      "name": "NuevoNFTMinted",
      "type": "event"
    },
    {
      "anonymous": false,
      "inputs": [
        {
          "indexed": true,
          "internalType": "address",
          "name": "from",
          "type": "address"
        },
        {
          "indexed": true,
          "internalType": "address",
          "name": "to",
          "type": "address"
        },
        {
          "indexed": true,
          "internalType": "uint256",
          "name": "tokenId",
          "type": "uint256"
        }
      ],
      "name": "Transfer",
      "type": "event"
    },
    {
      "inputs": [
        {
          "internalType": "address",
          "name": "to",
          "type": "address"
        },
        {
          "internalType": "uint256",
          "name": "tokenId",
          "type": "uint256"
        }
      ],
      "name": "approve",
      "outputs": [],
      "stateMutability": "nonpayable",
      "type": "function"
    },
    {
      "inputs": [
        {
          "internalType": "address",
          "name": "owner",
          "type": "address"
        }
      ],
      "name": "balanceOf",
      "outputs": [
        {
          "internalType": "uint256",
          "name": "",
          "type": "uint256"
        }
      ],
      "stateMutability": "view",
      "type": "function"
    },
    {
      "inputs": [
        {
          "internalType": "uint256",
          "name": "tokenId",
          "type": "uint256"
        }
      ],
      "name": "cogerAdjetivoRandom",
      "outputs": [
        {
          "internalType": "string",
          "name": "",
          "type": "string"
        }
      ],
      "stateMutability": "view",
      "type": "function"
    },
    {
      "inputs": [
        {
          "internalType": "uint256",
          "name": "tokenId",
          "type": "uint256"
        }
      ],
      "name": "cogerSustantivoRandom",
      "outputs": [
        {
          "internalType": "string",
          "name": "",
          "type": "string"
        }
      ],
      "stateMutability": "view",
      "type": "function"
    },
    {
      "inputs": [
        {
          "internalType": "uint256",
          "name": "tokenId",
          "type": "uint256"
        }
      ],
      "name": "cogerVerboRandom",
      "outputs": [
        {
          "internalType": "string",
          "name": "",
          "type": "string"
        }
      ],
      "stateMutability": "view",
      "type": "function"
    },
    {
      "inputs": [
        {
          "internalType": "uint256",
          "name": "tokenId",
          "type": "uint256"
        }
      ],
      "name": "getApproved",
      "outputs": [
        {
          "internalType": "address",
          "name": "",
          "type": "address"
        }
      ],
      "stateMutability": "view",
      "type": "function"
    },
    {
      "inputs": [
        {
          "internalType": "address",
          "name": "owner",
          "type": "address"
        },
        {
          "internalType": "address",
          "name": "operator",
          "type": "address"
        }
      ],
      "name": "isApprovedForAll",
      "outputs": [
        {
          "internalType": "bool",
          "name": "",
          "type": "bool"
        }
      ],
      "stateMutability": "view",
      "type": "function"
    },
    {
      "inputs": [],
      "name": "mintNFT",
      "outputs": [],
      "stateMutability": "nonpayable",
      "type": "function"
    },
    {
      "inputs": [],
      "name": "name",
      "outputs": [
        {
          "internalType": "string",
          "name": "",
          "type": "string"
        }
      ],
      "stateMutability": "view",
      "type": "function"
    },
    {
      "inputs": [
        {
          "internalType": "uint256",
          "name": "tokenId",
          "type": "uint256"
        }
      ],
      "name": "ownerOf",
      "outputs": [
        {
          "internalType": "address",
          "name": "",
          "type": "address"
        }
      ],
      "stateMutability": "view",
      "type": "function"
    },
    {
      "inputs": [
        {
          "internalType": "address",
          "name": "from",
          "type": "address"
        },
        {
          "internalType": "address",
          "name": "to",
          "type": "address"
        },
        {
          "internalType": "uint256",
          "name": "tokenId",
          "type": "uint256"
        }
      ],
      "name": "safeTransferFrom",
      "outputs": [],
      "stateMutability": "nonpayable",
      "type": "function"
    },
    {
      "inputs": [
        {
          "internalType": "address",
          "name": "from",
          "type": "address"
        },
        {
          "internalType": "address",
          "name": "to",
          "type": "address"
        },
        {
          "internalType": "uint256",
          "name": "tokenId",
          "type": "uint256"
        },
        {
          "internalType": "bytes",
          "name": "_data",
          "type": "bytes"
        }
      ],
      "name": "safeTransferFrom",
      "outputs": [],
      "stateMutability": "nonpayable",
      "type": "function"
    },
    {
      "inputs": [
        {
          "internalType": "address",
          "name": "operator",
          "type": "address"
        },
        {
          "internalType": "bool",
          "name": "approved",
          "type": "bool"
        }
      ],
      "name": "setApprovalForAll",
      "outputs": [],
      "stateMutability": "nonpayable",
      "type": "function"
    },
    {
      "inputs": [
        {
          "internalType": "bytes4",
          "name": "interfaceId",
          "type": "bytes4"
        }
      ],
      "name": "supportsInterface",
      "outputs": [
        {
          "internalType": "bool",
          "name": "",
          "type": "bool"
        }
      ],
      "stateMutability": "view",
      "type": "function"
    },
    {
      "inputs": [],
      "name": "symbol",
      "outputs": [
        {
          "internalType": "string",
          "name": "",
          "type": "string"
        }
      ],
      "stateMutability": "view",
      "type": "function"
    },
    {
      "inputs": [
        {
          "internalType": "uint256",
          "name": "tokenId",
          "type": "uint256"
        }
      ],
      "name": "tokenURI",
      "outputs": [
        {
          "internalType": "string",
          "name": "",
          "type": "string"
        }
      ],
      "stateMutability": "view",
      "type": "function"
    },
    {
      "inputs": [
        {
          "internalType": "address",
          "name": "from",
          "type": "address"
        },
        {
          "internalType": "address",
          "name": "to",
          "type": "address"
        },
        {
          "internalType": "uint256",
          "name": "tokenId",
          "type": "uint256"
        }
      ],
      "name": "transferFrom",
      "outputs": [],
      "stateMutability": "nonpayable",
      "type": "function"
    }
  ],
  "bytecode": "0x608060405260405180610160016040528061012e8152602001620043af61012e91396008908051906020019062000038929190620007c7565b506040518061010001604052806040518060400160405280600681526020017f4d656469636f000000000000000000000000000000000000000000000000000081525081526020016040518060400160405280600781526020017f506f6c696369610000000000000000000000000000000000000000000000000081525081526020016040518060400160405280600581526020017f506572726f00000000000000000000000000000000000000000000000000000081525081526020016040518060400160405280600481526020017f4761746f0000000000000000000000000000000000000000000000000000000081525081526020016040518060400160405280600781526020017f436162616c6c6f0000000000000000000000000000000000000000000000000081525081526020016040518060400160405280600581526020017f436f63686500000000000000000000000000000000000000000000000000000081525081526020016040518060400160405280600981526020017f457363616c61646f72000000000000000000000000000000000000000000000081525081526020016040518060400160405280600b81526020017f5665746572696e6172696f00000000000000000000000000000000000000000081525081525060099060086200022d92919062000858565b506040518061010001604052806040518060400160405280600481526020017f416c746f0000000000000000000000000000000000000000000000000000000081525081526020016040518060400160405280600681526020017f50657361646f000000000000000000000000000000000000000000000000000081525081526020016040518060400160405280600a81526020017f4e6f73656162756e646f0000000000000000000000000000000000000000000081525081526020016040518060400160405280600b81526020017f456d70656465726e69646f00000000000000000000000000000000000000000081525081526020016040518060400160405280600581526020017f467567617a00000000000000000000000000000000000000000000000000000081525081526020016040518060400160405280600581526020017f4174726f7a00000000000000000000000000000000000000000000000000000081525081526020016040518060400160405280600781526020017f45787472656d6f0000000000000000000000000000000000000000000000000081525081526020016040518060400160405280600781526020017f506c617965726f0000000000000000000000000000000000000000000000000081525081525060119060086200042292919062000858565b506040518061010001604052806040518060400160405280600581526020017f436f72726500000000000000000000000000000000000000000000000000000081525081526020016040518060400160405280600581526020017f5675656c6100000000000000000000000000000000000000000000000000000081525081526020016040518060400160405280600481526020017f4e6164610000000000000000000000000000000000000000000000000000000081525081526020016040518060400160405280600581526020017f43686f636100000000000000000000000000000000000000000000000000000081525081526020016040518060400160405280600681526020017f43616d626961000000000000000000000000000000000000000000000000000081525081526020016040518060400160405280600781526020017f54726162616a610000000000000000000000000000000000000000000000000081525081526020016040518060400160405280600781526020017f457374756469610000000000000000000000000000000000000000000000000081525081526020016040518060400160405280600781526020017f436f6e647563650000000000000000000000000000000000000000000000000081525081525060199060086200061792919062000858565b503480156200062557600080fd5b506040518060400160405280600981526020017f47726f766f744e465400000000000000000000000000000000000000000000008152506040518060400160405280600381526020017f47525600000000000000000000000000000000000000000000000000000000008152508160009080519060200190620006aa929190620007c7565b508060019080519060200190620006c3929190620007c7565b505050620006f56040518060600160405280602581526020016200438a60259139620006fb60201b620010121760201c565b62000a6c565b6200079b8160405160240162000712919062000980565b6040516020818303038152906040527f41304fac000000000000000000000000000000000000000000000000000000007bffffffffffffffffffffffffffffffffffffffffffffffffffffffff19166020820180517bffffffffffffffffffffffffffffffffffffffffffffffffffffffff83818316178352505050506200079e60201b60201c565b50565b60008151905060006a636f6e736f6c652e6c6f679050602083016000808483855afa5050505050565b828054620007d590620009f6565b90600052602060002090601f016020900481019282620007f9576000855562000845565b82601f106200081457805160ff191683800117855562000845565b8280016001018555821562000845579182015b828111156200084457825182559160200191906001019062000827565b5b509050620008549190620008b2565b5090565b82600881019282156200089f579160200282015b828111156200089e5782518290805190602001906200088d929190620007c7565b50916020019190600101906200086c565b5b509050620008ae9190620008d1565b5090565b5b80821115620008cd576000816000905550600101620008b3565b5090565b5b80821115620008f55760008181620008eb9190620008f9565b50600101620008d2565b5090565b5080546200090790620009f6565b6000825580601f106200091b57506200093c565b601f0160209004906000526020600020908101906200093b9190620008b2565b5b50565b60006200094c82620009a4565b620009588185620009af565b93506200096a818560208601620009c0565b620009758162000a5b565b840191505092915050565b600060208201905081810360008301526200099c81846200093f565b905092915050565b600081519050919050565b600082825260208201905092915050565b60005b83811015620009e0578082015181840152602081019050620009c3565b83811115620009f0576000848401525b50505050565b6000600282049050600182168062000a0f57607f821691505b6020821081141562000a265762000a2562000a2c565b5b50919050565b7f4e487b7100000000000000000000000000000000000000000000000000000000600052602260045260246000fd5b6000601f19601f8301169050919050565b61390e8062000a7c6000396000f3fe608060405234801561001057600080fd5b506004361061010b5760003560e01c8063466a280d116100a2578063a22cb46511610071578063a22cb465146102ca578063b88d4fde146102e6578063b8c1fcd314610302578063c87b56dd14610332578063e985e9c5146103625761010b565b8063466a280d1461021c5780636352211e1461024c57806370a082311461027c57806395d89b41146102ac5761010b565b80630e65f068116100de5780630e65f068146101aa57806314f710fe146101da57806323b872dd146101e457806342842e0e146102005761010b565b806301ffc9a71461011057806306fdde0314610140578063081812fc1461015e578063095ea7b31461018e575b600080fd5b61012a6004803603810190610125919061243e565b610392565b6040516101379190612b48565b60405180910390f35b610148610474565b6040516101559190612b63565b60405180910390f35b61017860048036038101906101739190612490565b610506565b6040516101859190612ab8565b60405180910390f35b6101a860048036038101906101a39190612402565b61058b565b005b6101c460048036038101906101bf9190612490565b6106a3565b6040516101d19190612b63565b60405180910390f35b6101e26107b4565b005b6101fe60048036038101906101f991906122fc565b610916565b005b61021a600480360381019061021591906122fc565b610976565b005b61023660048036038101906102319190612490565b610996565b6040516102439190612b63565b60405180910390f35b61026660048036038101906102619190612490565b610aa7565b6040516102739190612ab8565b60405180910390f35b61029660048036038101906102919190612297565b610b59565b6040516102a39190612dc3565b60405180910390f35b6102b4610c11565b6040516102c19190612b63565b60405180910390f35b6102e460048036038101906102df91906123c6565b610ca3565b005b61030060048036038101906102fb919061234b565b610cb9565b005b61031c60048036038101906103179190612490565b610d1b565b6040516103299190612b63565b60405180910390f35b61034c60048036038101906103479190612490565b610e2c565b6040516103599190612b63565b60405180910390f35b61037c600480360381019061037791906122c0565b610f7e565b6040516103899190612b48565b60405180910390f35b60007f80ac58cd000000000000000000000000000000000000000000000000000000007bffffffffffffffffffffffffffffffffffffffffffffffffffffffff1916827bffffffffffffffffffffffffffffffffffffffffffffffffffffffff1916148061045d57507f5b5e139f000000000000000000000000000000000000000000000000000000007bffffffffffffffffffffffffffffffffffffffffffffffffffffffff1916827bffffffffffffffffffffffffffffffffffffffffffffffffffffffff1916145b8061046d575061046c826110ab565b5b9050919050565b60606000805461048390613057565b80601f01602080910402602001604051908101604052809291908181526020018280546104af90613057565b80156104fc5780601f106104d1576101008083540402835291602001916104fc565b820191906000526020600020905b8154815290600101906020018083116104df57829003601f168201915b5050505050905090565b600061051182611115565b610550576040517f08c379a000000000000000000000000000000000000000000000000000000000815260040161054790612d43565b60405180910390fd5b6004600083815260200190815260200160002060009054906101000a900473ffffffffffffffffffffffffffffffffffffffff169050919050565b600061059682610aa7565b90508073ffffffffffffffffffffffffffffffffffffffff168373ffffffffffffffffffffffffffffffffffffffff161415610607576040517f08c379a00000000000000000000000000000000000000000000000000000000081526004016105fe90612d83565b60405180910390fd5b8073ffffffffffffffffffffffffffffffffffffffff16610626611181565b73ffffffffffffffffffffffffffffffffffffffff16148061065557506106548161064f611181565b610f7e565b5b610694576040517f08c379a000000000000000000000000000000000000000000000000000000000815260040161068b90612c83565b60405180910390fd5b61069e8383611189565b505050565b606060006106d76106b384611242565b6040516020016106c39190612a96565b6040516020818303038152906040526113ef565b90506008816106e69190613103565b905060098160088110610722577f4e487b7100000000000000000000000000000000000000000000000000000000600052603260045260246000fd5b01805461072e90613057565b80601f016020809104026020016040519081016040528092919081815260200182805461075a90613057565b80156107a75780601f1061077c576101008083540402835291602001916107a7565b820191906000526020600020905b81548152906001019060200180831161078a57829003601f168201915b5050505050915050919050565b60006107c06007611422565b905060006107cd826106a3565b905060006107da83610996565b905060006107e784610d1b565b905060008383836040516020016108009392919061298b565b604051602081830303815290604052905060006008826040516020016108279291906129bc565b6040516020818303038152906040529050600061086c8361084784611430565b604051602001610858929190612a0d565b604051602081830303815290604052611430565b90506000816040516020016108819190612a74565b604051602081830303815290604052905061089c33896115ee565b6108a6888261160c565b6108b06007611680565b6108d36040518060600160405280602981526020016138b0602991398933611696565b7f91aed22baa314033816c02432ddd580bc79c4da93530ca8f3881d7b93a56544d3389604051610904929190612b1f565b60405180910390a15050505050505050565b610927610921611181565b82611735565b610966576040517f08c379a000000000000000000000000000000000000000000000000000000000815260040161095d90612da3565b60405180910390fd5b610971838383611813565b505050565b61099183838360405180602001604052806000815250610cb9565b505050565b606060006109ca6109a684611242565b6040516020016109b69190612a52565b6040516020818303038152906040526113ef565b90506008816109d99190613103565b905060118160088110610a15577f4e487b7100000000000000000000000000000000000000000000000000000000600052603260045260246000fd5b018054610a2190613057565b80601f0160208091040260200160405190810160405280929190818152602001828054610a4d90613057565b8015610a9a5780601f10610a6f57610100808354040283529160200191610a9a565b820191906000526020600020905b815481529060010190602001808311610a7d57829003601f168201915b5050505050915050919050565b6000806002600084815260200190815260200160002060009054906101000a900473ffffffffffffffffffffffffffffffffffffffff169050600073ffffffffffffffffffffffffffffffffffffffff168173ffffffffffffffffffffffffffffffffffffffff161415610b50576040517f08c379a0000000000000000000000000000000000000000000000000000000008152600401610b4790612cc3565b60405180910390fd5b80915050919050565b60008073ffffffffffffffffffffffffffffffffffffffff168273ffffffffffffffffffffffffffffffffffffffff161415610bca576040517f08c379a0000000000000000000000000000000000000000000000000000000008152600401610bc190612ca3565b60405180910390fd5b600360008373ffffffffffffffffffffffffffffffffffffffff1673ffffffffffffffffffffffffffffffffffffffff168152602001908152602001600020549050919050565b606060018054610c2090613057565b80601f0160208091040260200160405190810160405280929190818152602001828054610c4c90613057565b8015610c995780601f10610c6e57610100808354040283529160200191610c99565b820191906000526020600020905b815481529060010190602001808311610c7c57829003601f168201915b5050505050905090565b610cb5610cae611181565b8383611a7a565b5050565b610cca610cc4611181565b83611735565b610d09576040517f08c379a0000000000000000000000000000000000000000000000000000000008152600401610d0090612da3565b60405180910390fd5b610d1584848484611be7565b50505050565b60606000610d4f610d2b84611242565b604051602001610d3b91906129eb565b6040516020818303038152906040526113ef565b9050600881610d5e9190613103565b905060198160088110610d9a577f4e487b7100000000000000000000000000000000000000000000000000000000600052603260045260246000fd5b018054610da690613057565b80601f0160208091040260200160405190810160405280929190818152602001828054610dd290613057565b8015610e1f5780601f10610df457610100808354040283529160200191610e1f565b820191906000526020600020905b815481529060010190602001808311610e0257829003601f168201915b5050505050915050919050565b6060610e3782611115565b610e76576040517f08c379a0000000000000000000000000000000000000000000000000000000008152600401610e6d90612d23565b60405180910390fd5b6000600660008481526020019081526020016000208054610e9690613057565b80601f0160208091040260200160405190810160405280929190818152602001828054610ec290613057565b8015610f0f5780601f10610ee457610100808354040283529160200191610f0f565b820191906000526020600020905b815481529060010190602001808311610ef257829003601f168201915b505050505090506000610f20611c43565b9050600081511415610f36578192505050610f79565b600082511115610f6b578082604051602001610f53929190612967565b60405160208183030381529060405292505050610f79565b610f7484611c5a565b925050505b919050565b6000600560008473ffffffffffffffffffffffffffffffffffffffff1673ffffffffffffffffffffffffffffffffffffffff16815260200190815260200160002060008373ffffffffffffffffffffffffffffffffffffffff1673ffffffffffffffffffffffffffffffffffffffff16815260200190815260200160002060009054906101000a900460ff16905092915050565b6110a8816040516024016110269190612b63565b6040516020818303038152906040527f41304fac000000000000000000000000000000000000000000000000000000007bffffffffffffffffffffffffffffffffffffffffffffffffffffffff19166020820180517bffffffffffffffffffffffffffffffffffffffffffffffffffffffff8381831617835250505050611d01565b50565b60007f01ffc9a7000000000000000000000000000000000000000000000000000000007bffffffffffffffffffffffffffffffffffffffffffffffffffffffff1916827bffffffffffffffffffffffffffffffffffffffffffffffffffffffff1916149050919050565b60008073ffffffffffffffffffffffffffffffffffffffff166002600084815260200190815260200160002060009054906101000a900473ffffffffffffffffffffffffffffffffffffffff1673ffffffffffffffffffffffffffffffffffffffff1614159050919050565b600033905090565b816004600083815260200190815260200160002060006101000a81548173ffffffffffffffffffffffffffffffffffffffff021916908373ffffffffffffffffffffffffffffffffffffffff160217905550808273ffffffffffffffffffffffffffffffffffffffff166111fc83610aa7565b73ffffffffffffffffffffffffffffffffffffffff167f8c5be1e5ebec7d5bd14f71427d1e84f3dd0314c0f7b2291e5b200ac8c7c3b92560405160405180910390a45050565b6060600082141561128a576040518060400160405280600181526020017f300000000000000000000000000000000000000000000000000000000000000081525090506113ea565b600082905060005b600082146112bc5780806112a5906130ba565b915050600a826112b59190612ee2565b9150611292565b60008167ffffffffffffffff8111156112fe577f4e487b7100000000000000000000000000000000000000000000000000000000600052604160045260246000fd5b6040519080825280601f01601f1916602001820160405280156113305781602001600182028036833780820191505090505b5090505b600085146113e3576001826113499190612f6d565b9150600a856113589190613103565b60306113649190612e8c565b60f81b8183815181106113a0577f4e487b7100000000000000000000000000000000000000000000000000000000600052603260045260246000fd5b60200101907effffffffffffffffffffffffffffffffffffffffffffffffffffffffffffff1916908160001a905350600a856113dc9190612ee2565b9450611334565b8093505050505b919050565b6000816040516020016114029190612950565b6040516020818303038152906040528051906020012060001c9050919050565b600081600001549050919050565b6060600082519050600081141561145957604051806020016040528060008152509150506115e9565b6000600360028361146a9190612e8c565b6114749190612ee2565b60046114809190612f13565b905060006020826114919190612e8c565b67ffffffffffffffff8111156114d0577f4e487b7100000000000000000000000000000000000000000000000000000000600052604160045260246000fd5b6040519080825280601f01601f1916602001820160405280156115025781602001600182028036833780820191505090505b5090506000604051806060016040528060408152602001613870604091399050600181016020830160005b868110156115a65760038101905062ffffff818a015116603f8160121c168401518060081b905060ff603f83600c1c1686015116810190508060081b905060ff603f8360061c1686015116810190508060081b905060ff603f831686015116810190508060e01b9050808452600484019350505061152d565b5060038606600181146115c057600281146115d0576115db565b613d3d60f01b60028303526115db565b603d60f81b60018303525b508484525050819450505050505b919050565b611608828260405180602001604052806000815250611d2a565b5050565b61161582611115565b611654576040517f08c379a000000000000000000000000000000000000000000000000000000000815260040161164b90612ce3565b60405180910390fd5b8060066000848152602001908152602001600020908051906020019061167b929190612123565b505050565b6001816000016000828254019250508190555050565b6117308383836040516024016116ae93929190612b85565b6040516020818303038152906040527fe3849f79000000000000000000000000000000000000000000000000000000007bffffffffffffffffffffffffffffffffffffffffffffffffffffffff19166020820180517bffffffffffffffffffffffffffffffffffffffffffffffffffffffff8381831617835250505050611d01565b505050565b600061174082611115565b61177f576040517f08c379a000000000000000000000000000000000000000000000000000000000815260040161177690612c63565b60405180910390fd5b600061178a83610aa7565b90508073ffffffffffffffffffffffffffffffffffffffff168473ffffffffffffffffffffffffffffffffffffffff1614806117cc57506117cb8185610f7e565b5b8061180a57508373ffffffffffffffffffffffffffffffffffffffff166117f284610506565b73ffffffffffffffffffffffffffffffffffffffff16145b91505092915050565b8273ffffffffffffffffffffffffffffffffffffffff1661183382610aa7565b73ffffffffffffffffffffffffffffffffffffffff1614611889576040517f08c379a000000000000000000000000000000000000000000000000000000000815260040161188090612be3565b60405180910390fd5b600073ffffffffffffffffffffffffffffffffffffffff168273ffffffffffffffffffffffffffffffffffffffff1614156118f9576040517f08c379a00000000000000000000000000000000000000000000000000000000081526004016118f090612c23565b60405180910390fd5b611904838383611d85565b61190f600082611189565b6001600360008573ffffffffffffffffffffffffffffffffffffffff1673ffffffffffffffffffffffffffffffffffffffff168152602001908152602001600020600082825461195f9190612f6d565b925050819055506001600360008473ffffffffffffffffffffffffffffffffffffffff1673ffffffffffffffffffffffffffffffffffffffff16815260200190815260200160002060008282546119b69190612e8c565b92505081905550816002600083815260200190815260200160002060006101000a81548173ffffffffffffffffffffffffffffffffffffffff021916908373ffffffffffffffffffffffffffffffffffffffff160217905550808273ffffffffffffffffffffffffffffffffffffffff168473ffffffffffffffffffffffffffffffffffffffff167fddf252ad1be2c89b69c2b068fc378daa952ba7f163c4a11628f55a4df523b3ef60405160405180910390a4611a75838383611d8a565b505050565b8173ffffffffffffffffffffffffffffffffffffffff168373ffffffffffffffffffffffffffffffffffffffff161415611ae9576040517f08c379a0000000000000000000000000000000000000000000000000000000008152600401611ae090612c43565b60405180910390fd5b80600560008573ffffffffffffffffffffffffffffffffffffffff1673ffffffffffffffffffffffffffffffffffffffff16815260200190815260200160002060008473ffffffffffffffffffffffffffffffffffffffff1673ffffffffffffffffffffffffffffffffffffffff16815260200190815260200160002060006101000a81548160ff0219169083151502179055508173ffffffffffffffffffffffffffffffffffffffff168373ffffffffffffffffffffffffffffffffffffffff167f17307eab39ab6107e8899845ad3d59bd9653f200f220920489ca2b5937696c3183604051611bda9190612b48565b60405180910390a3505050565b611bf2848484611813565b611bfe84848484611d8f565b611c3d576040517f08c379a0000000000000000000000000000000000000000000000000000000008152600401611c3490612bc3565b60405180910390fd5b50505050565b606060405180602001604052806000815250905090565b6060611c6582611115565b611ca4576040517f08c379a0000000000000000000000000000000000000000000000000000000008152600401611c9b90612d63565b60405180910390fd5b6000611cae611c43565b90506000815111611cce5760405180602001604052806000815250611cf9565b80611cd884611242565b604051602001611ce9929190612967565b6040516020818303038152906040525b915050919050565b60008151905060006a636f6e736f6c652e6c6f679050602083016000808483855afa5050505050565b611d348383611f26565b611d416000848484611d8f565b611d80576040517f08c379a0000000000000000000000000000000000000000000000000000000008152600401611d7790612bc3565b60405180910390fd5b505050565b505050565b505050565b6000611db08473ffffffffffffffffffffffffffffffffffffffff16612100565b15611f19578373ffffffffffffffffffffffffffffffffffffffff1663150b7a02611dd9611181565b8786866040518563ffffffff1660e01b8152600401611dfb9493929190612ad3565b602060405180830381600087803b158015611e1557600080fd5b505af1925050508015611e4657506040513d601f19601f82011682018060405250810190611e439190612467565b60015b611ec9573d8060008114611e76576040519150601f19603f3d011682016040523d82523d6000602084013e611e7b565b606091505b50600081511415611ec1576040517f08c379a0000000000000000000000000000000000000000000000000000000008152600401611eb890612bc3565b60405180910390fd5b805181602001fd5b63150b7a0260e01b7bffffffffffffffffffffffffffffffffffffffffffffffffffffffff1916817bffffffffffffffffffffffffffffffffffffffffffffffffffffffff191614915050611f1e565b600190505b949350505050565b600073ffffffffffffffffffffffffffffffffffffffff168273ffffffffffffffffffffffffffffffffffffffff161415611f96576040517f08c379a0000000000000000000000000000000000000000000000000000000008152600401611f8d90612d03565b60405180910390fd5b611f9f81611115565b15611fdf576040517f08c379a0000000000000000000000000000000000000000000000000000000008152600401611fd690612c03565b60405180910390fd5b611feb60008383611d85565b6001600360008473ffffffffffffffffffffffffffffffffffffffff1673ffffffffffffffffffffffffffffffffffffffff168152602001908152602001600020600082825461203b9190612e8c565b92505081905550816002600083815260200190815260200160002060006101000a81548173ffffffffffffffffffffffffffffffffffffffff021916908373ffffffffffffffffffffffffffffffffffffffff160217905550808273ffffffffffffffffffffffffffffffffffffffff16600073ffffffffffffffffffffffffffffffffffffffff167fddf252ad1be2c89b69c2b068fc378daa952ba7f163c4a11628f55a4df523b3ef60405160405180910390a46120fc60008383611d8a565b5050565b6000808273ffffffffffffffffffffffffffffffffffffffff163b119050919050565b82805461212f90613057565b90600052602060002090601f0160209004810192826121515760008555612198565b82601f1061216a57805160ff1916838001178555612198565b82800160010185558215612198579182015b8281111561219757825182559160200191906001019061217c565b5b5090506121a591906121a9565b5090565b5b808211156121c25760008160009055506001016121aa565b5090565b60006121d96121d484612e03565b612dde565b9050828152602081018484840111156121f157600080fd5b6121fc848285613015565b509392505050565b60008135905061221381613813565b92915050565b6000813590506122288161382a565b92915050565b60008135905061223d81613841565b92915050565b60008151905061225281613841565b92915050565b600082601f83011261226957600080fd5b81356122798482602086016121c6565b91505092915050565b60008135905061229181613858565b92915050565b6000602082840312156122a957600080fd5b60006122b784828501612204565b91505092915050565b600080604083850312156122d357600080fd5b60006122e185828601612204565b92505060206122f285828601612204565b9150509250929050565b60008060006060848603121561231157600080fd5b600061231f86828701612204565b935050602061233086828701612204565b925050604061234186828701612282565b9150509250925092565b6000806000806080858703121561236157600080fd5b600061236f87828801612204565b945050602061238087828801612204565b935050604061239187828801612282565b925050606085013567ffffffffffffffff8111156123ae57600080fd5b6123ba87828801612258565b91505092959194509250565b600080604083850312156123d957600080fd5b60006123e785828601612204565b92505060206123f885828601612219565b9150509250929050565b6000806040838503121561241557600080fd5b600061242385828601612204565b925050602061243485828601612282565b9150509250929050565b60006020828403121561245057600080fd5b600061245e8482850161222e565b91505092915050565b60006020828403121561247957600080fd5b600061248784828501612243565b91505092915050565b6000602082840312156124a257600080fd5b60006124b084828501612282565b91505092915050565b6124c281612fa1565b82525050565b6124d181612fb3565b82525050565b60006124e282612e49565b6124ec8185612e5f565b93506124fc818560208601613024565b612505816131f0565b840191505092915050565b600061251b82612e54565b6125258185612e70565b9350612535818560208601613024565b61253e816131f0565b840191505092915050565b600061255482612e54565b61255e8185612e81565b935061256e818560208601613024565b80840191505092915050565b6000815461258781613057565b6125918186612e81565b945060018216600081146125ac57600181146125bd576125f0565b60ff198316865281860193506125f0565b6125c685612e34565b60005b838110156125e8578154818901526001820191506020810190506125c9565b838801955050505b50505092915050565b6000612606603283612e70565b915061261182613201565b604082019050919050565b6000612629602583612e70565b915061263482613250565b604082019050919050565b600061264c601c83612e70565b91506126578261329f565b602082019050919050565b600061266f605683612e81565b915061267a826132c8565b605682019050919050565b6000612692602483612e70565b915061269d8261333d565b604082019050919050565b60006126b5601983612e70565b91506126c08261338c565b602082019050919050565b60006126d8602c83612e70565b91506126e3826133b5565b604082019050919050565b60006126fb600d83612e81565b915061270682613404565b600d82019050919050565b600061271e603883612e70565b91506127298261342d565b604082019050919050565b6000612741602a83612e70565b915061274c8261347c565b604082019050919050565b6000612764602983612e70565b915061276f826134cb565b604082019050919050565b6000612787602e83612e70565b91506127928261351a565b604082019050919050565b60006127aa600283612e81565b91506127b582613569565b600282019050919050565b60006127cd602083612e70565b91506127d882613592565b602082019050919050565b60006127f0603183612e70565b91506127fb826135bb565b604082019050919050565b6000612813602c83612e70565b915061281e8261360a565b604082019050919050565b6000612836600683612e81565b915061284182613659565b600682019050919050565b6000612859602f83612e70565b915061286482613682565b604082019050919050565b600061287c600a83612e81565b9150612887826136d1565b600a82019050919050565b600061289f600983612e81565b91506128aa826136fa565b600982019050919050565b60006128c2602183612e70565b91506128cd82613723565b604082019050919050565b60006128e5601d83612e81565b91506128f082613772565b601d82019050919050565b6000612908603183612e70565b91506129138261379b565b604082019050919050565b600061292b600b83612e81565b9150612936826137ea565b600b82019050919050565b61294a8161300b565b82525050565b600061295c8284612549565b915081905092915050565b60006129738285612549565b915061297f8284612549565b91508190509392505050565b60006129978286612549565b91506129a38285612549565b91506129af8284612549565b9150819050949350505050565b60006129c8828561257a565b91506129d48284612549565b91506129df826126ee565b91508190509392505050565b60006129f682612829565b9150612a028284612549565b915081905092915050565b6000612a188261286f565b9150612a248285612549565b9150612a2f82612662565b9150612a3b8284612549565b9150612a468261279d565b91508190509392505050565b6000612a5d82612892565b9150612a698284612549565b915081905092915050565b6000612a7f826128d8565b9150612a8b8284612549565b915081905092915050565b6000612aa18261291e565b9150612aad8284612549565b915081905092915050565b6000602082019050612acd60008301846124b9565b92915050565b6000608082019050612ae860008301876124b9565b612af560208301866124b9565b612b026040830185612941565b8181036060830152612b1481846124d7565b905095945050505050565b6000604082019050612b3460008301856124b9565b612b416020830184612941565b9392505050565b6000602082019050612b5d60008301846124c8565b92915050565b60006020820190508181036000830152612b7d8184612510565b905092915050565b60006060820190508181036000830152612b9f8186612510565b9050612bae6020830185612941565b612bbb60408301846124b9565b949350505050565b60006020820190508181036000830152612bdc816125f9565b9050919050565b60006020820190508181036000830152612bfc8161261c565b9050919050565b60006020820190508181036000830152612c1c8161263f565b9050919050565b60006020820190508181036000830152612c3c81612685565b9050919050565b60006020820190508181036000830152612c5c816126a8565b9050919050565b60006020820190508181036000830152612c7c816126cb565b9050919050565b60006020820190508181036000830152612c9c81612711565b9050919050565b60006020820190508181036000830152612cbc81612734565b9050919050565b60006020820190508181036000830152612cdc81612757565b9050919050565b60006020820190508181036000830152612cfc8161277a565b9050919050565b60006020820190508181036000830152612d1c816127c0565b9050919050565b60006020820190508181036000830152612d3c816127e3565b9050919050565b60006020820190508181036000830152612d5c81612806565b9050919050565b60006020820190508181036000830152612d7c8161284c565b9050919050565b60006020820190508181036000830152612d9c816128b5565b9050919050565b60006020820190508181036000830152612dbc816128fb565b9050919050565b6000602082019050612dd86000830184612941565b92915050565b6000612de8612df9565b9050612df48282613089565b919050565b6000604051905090565b600067ffffffffffffffff821115612e1e57612e1d6131c1565b5b612e27826131f0565b9050602081019050919050565b60008190508160005260206000209050919050565b600081519050919050565b600081519050919050565b600082825260208201905092915050565b600082825260208201905092915050565b600081905092915050565b6000612e978261300b565b9150612ea28361300b565b9250827fffffffffffffffffffffffffffffffffffffffffffffffffffffffffffffffff03821115612ed757612ed6613134565b5b828201905092915050565b6000612eed8261300b565b9150612ef88361300b565b925082612f0857612f07613163565b5b828204905092915050565b6000612f1e8261300b565b9150612f298361300b565b9250817fffffffffffffffffffffffffffffffffffffffffffffffffffffffffffffffff0483118215151615612f6257612f61613134565b5b828202905092915050565b6000612f788261300b565b9150612f838361300b565b925082821015612f9657612f95613134565b5b828203905092915050565b6000612fac82612feb565b9050919050565b60008115159050919050565b60007fffffffff0000000000000000000000000000000000000000000000000000000082169050919050565b600073ffffffffffffffffffffffffffffffffffffffff82169050919050565b6000819050919050565b82818337600083830152505050565b60005b83811015613042578082015181840152602081019050613027565b83811115613051576000848401525b50505050565b6000600282049050600182168061306f57607f821691505b6020821081141561308357613082613192565b5b50919050565b613092826131f0565b810181811067ffffffffffffffff821117156130b1576130b06131c1565b5b80604052505050565b60006130c58261300b565b91507fffffffffffffffffffffffffffffffffffffffffffffffffffffffffffffffff8214156130f8576130f7613134565b5b600182019050919050565b600061310e8261300b565b91506131198361300b565b92508261312957613128613163565b5b828206905092915050565b7f4e487b7100000000000000000000000000000000000000000000000000000000600052601160045260246000fd5b7f4e487b7100000000000000000000000000000000000000000000000000000000600052601260045260246000fd5b7f4e487b7100000000000000000000000000000000000000000000000000000000600052602260045260246000fd5b7f4e487b7100000000000000000000000000000000000000000000000000000000600052604160045260246000fd5b6000601f19601f8301169050919050565b7f4552433732313a207472616e7366657220746f206e6f6e20455243373231526560008201527f63656976657220696d706c656d656e7465720000000000000000000000000000602082015250565b7f4552433732313a207472616e736665722066726f6d20696e636f72726563742060008201527f6f776e6572000000000000000000000000000000000000000000000000000000602082015250565b7f4552433732313a20746f6b656e20616c7265616479206d696e74656400000000600082015250565b7f222c20226465736372697074696f6e223a2022556e61206c756a6f736120636f60008201527f6c656363696f6e206465204e465473222c2022696d616765223a20226461746160208201527f3a696d6167652f7376672b786d6c3b6261736536342c00000000000000000000604082015250565b7f4552433732313a207472616e7366657220746f20746865207a65726f2061646460008201527f7265737300000000000000000000000000000000000000000000000000000000602082015250565b7f4552433732313a20617070726f766520746f2063616c6c657200000000000000600082015250565b7f4552433732313a206f70657261746f7220717565727920666f72206e6f6e657860008201527f697374656e7420746f6b656e0000000000000000000000000000000000000000602082015250565b7f3c2f746578743e3c2f7376673e00000000000000000000000000000000000000600082015250565b7f4552433732313a20617070726f76652063616c6c6572206973206e6f74206f7760008201527f6e6572206e6f7220617070726f76656420666f7220616c6c0000000000000000602082015250565b7f4552433732313a2062616c616e636520717565727920666f7220746865207a6560008201527f726f206164647265737300000000000000000000000000000000000000000000602082015250565b7f4552433732313a206f776e657220717565727920666f72206e6f6e657869737460008201527f656e7420746f6b656e0000000000000000000000000000000000000000000000602082015250565b7f45524337323155524953746f726167653a2055524920736574206f66206e6f6e60008201527f6578697374656e7420746f6b656e000000000000000000000000000000000000602082015250565b7f227d000000000000000000000000000000000000000000000000000000000000600082015250565b7f4552433732313a206d696e7420746f20746865207a65726f2061646472657373600082015250565b7f45524337323155524953746f726167653a2055524920717565727920666f722060008201527f6e6f6e6578697374656e7420746f6b656e000000000000000000000000000000602082015250565b7f4552433732313a20617070726f76656420717565727920666f72206e6f6e657860008201527f697374656e7420746f6b656e0000000000000000000000000000000000000000602082015250565b7f766572626f730000000000000000000000000000000000000000000000000000600082015250565b7f4552433732314d657461646174613a2055524920717565727920666f72206e6f60008201527f6e6578697374656e7420746f6b656e0000000000000000000000000000000000602082015250565b7f7b226e616d65223a202200000000000000000000000000000000000000000000600082015250565b7f61646a657469766f730000000000000000000000000000000000000000000000600082015250565b7f4552433732313a20617070726f76616c20746f2063757272656e74206f776e6560008201527f7200000000000000000000000000000000000000000000000000000000000000602082015250565b7f646174613a6170706c69636174696f6e2f6a736f6e3b6261736536342c000000600082015250565b7f4552433732313a207472616e736665722063616c6c6572206973206e6f74206f60008201527f776e6572206e6f7220617070726f766564000000000000000000000000000000602082015250565b7f73757374616e7469766f73000000000000000000000000000000000000000000600082015250565b61381c81612fa1565b811461382757600080fd5b50565b61383381612fb3565b811461383e57600080fd5b50565b61384a81612fbf565b811461385557600080fd5b50565b6138618161300b565b811461386c57600080fd5b5056fe4142434445464748494a4b4c4d4e4f505152535455565758595a6162636465666768696a6b6c6d6e6f707172737475767778797a303132333435363738392b2f556e204e465420636f6e204944202573206861207369646f206d696e746561646f2070617261202573a2646970667358221220633f3456449e4413f6e54046b8d1808a991c3ba44ce410891a92d8a8aaf3592664736f6c634300080100334573746520657320656c20636f6e747261746f206465206d69204e46542e204f6c656521213c73766720786d6c6e733d27687474703a2f2f7777772e77332e6f72672f323030302f73766727207072657365727665417370656374526174696f3d27784d696e594d696e206d656574272076696577426f783d273020302033353020333530273e3c7374796c653e2e62617365207b2066696c6c3a2077686974653b20666f6e742d66616d696c793a2073657269663b20666f6e742d73697a653a20323470783b207d3c2f7374796c653e3c726563742077696474683d273130302527206865696768743d2731303025272066696c6c3d27626c756527202f3e3c7465787420783d273530252720793d273530252720636c6173733d27626173652720646f6d696e616e742d626173656c696e653d276d6964646c652720746578742d616e63686f723d276d6964646c65273e",
  "linkReferences": {},
  "deployedLinkReferences": {}
}